:10000000FC7F002029050000190500001D050000E7
:1000100000000000000000000000000000000000E0
:1000200000000000000000000000000021050000AA
:10003000000000000000000025050000F91000008D
:1000400010B5064C2378002B07D1054B002B02D0AE
:10005000044800E000BF0123237010BD740000209D
:1000600000000000241E0000044B10B5002B03D03C
:100070000349044800E000BF10BDC0460000000076
:1000800078000020241E000010B51D491D4B0A7881
:10009000002A09D11C4A1278187812188020D2B28E
:1000A0001A701A4A8002D0610A7817480132D2B217
:1000B0000A701A78F02A0ED8154A1C7810788442F3
:1000C00012D21148047864B2002C0DDA1478052C91
:1000D00013D1413414700278524252B20270027845
:1000E00018781218D2B21A700A781B789A4203D183
:1000F0008022064B9202DA6110BD0524EAE7C04671
:100100009000002001000020000000200044004179
:100110000200002070B572B6FA24802664004443C1
:10012000034DB602EE61200000F0D6FAFAE7C046B1
:1001300000440041036808211A0070B50400988B40
:10014000FF32084227D099837831997211234020D9
:10015000C0255370134B907151715968124EAD0503
:10016000314029435960596931400D430F495D6160
:1001700019600F490F4D196159680D40802189029E
:10018000294359605968890B8903596000235071CC
:100190002371207970BD137ADB06FAD5200000F0B8
:1001A000E5FFF6E7AC010020FFFFFF8FAC00002069
:1001B0002C010020FF3F00F000238380034B0A78CE
:1001C00083600223134301600B7070473501000008
:1001D0002023234A10B5D16922480B43D36100F094
:1001E00015FA214800F012FA204B214A5A8000F0FB
:1001F00085FA01221F4B19780A431A709A78D207A0
:10020000FCD41F241C4A11684A0B2240A24200D190
:100210000522880C20401F2800D102388901490F8F
:10022000072900D104399201024309030A437F21BF
:100230001A851A7811480A401A70042219780A435C
:100240000C211A7058621A898A431A811A890B394B
:100250008A431A810021802201F085FC10BDC0462E
:10026000000400400600180006001900000C0040C1
:10027000064000000050004124608000AC010020D6
:10028000F7B5009001201E4E1C005B011700019382
:10029000F218536910325B005B0F03339840B84289
:1002A00021D8802350681B06034353606301F6186E
:1002B00031617369B9049B0B890C9B030B43736118
:1002C0007369104908340B407361009B64011C1969
:1002D0000223E3716279823B13436371E3799B07E5
:1002E000FCD53800FEBD25006B1E9D41064BAD01BF
:1002F000ED183A00280001F02DFC2900D6E7C04691
:10030000AC010020FF3F00F02C010020F8B51A4F8F
:1003100006003B7808001400002B12D1174B184A36
:1003200018491A645A6C920B92035A645A6C0A4028
:100330005A64A22240235200B15C0B43B354012300
:100340003B704825FF35735DDB07DB0F12D00B4A8E
:10035000536C9B049B0CA34202D2546CA404A40CC7
:100360002200074901F0F6FB0123735500233B707F
:100370002000F8BD1C00FBE791000020AC0100202C
:10038000EC000020FF3F00F0FF308279202300299D
:1003900000D110231343837170470000074AFF30D8
:1003A00053699B0B9B035361022303728279823B47
:1003B00013438371037A9B07FCD57047AC0100207F
:1003C00080235B421943C9B281727047A023032284
:1003D000C02170B55B00C254124B134C5A6C890596
:1003E00022400A435A6446224025FF3285540F4A70
:1003F00030261A649022520086545A6B22401143D0
:1004000092225963802152008154094A1A63B02212
:10041000520085545A6F22405A67B2235B00C15480
:1004200070BDC046AC010020FFFFFF8FEC00002034
:100430006C01002010230249CA681A42FCD07047A0
:10044000000800408022F8B5284B294E5968294CF5
:100450000A431E215A605A688A43110002220A4345
:100460005A600823B2691343B361012323702278D1
:100470001A4203D0627852B2002AF8DB80221E4D65
:100480000027AB8C9343AB84FFF7D4FF80221B4B38
:1004900092001B689B0E9B021343AB62184BEB62EE
:1004A00092235B00AB84FFF7C5FF0223AA8C1343A2
:1004B000AB84FFF7BFFFA76000F020F9114B63602A
:1004C00000F01CF92B6A104A13402B620323A3602F
:1004D00000F014F90D4B636000F010F90C4B0D4A5D
:1004E0001A6037727772B772F772F8BD0040004138
:1004F00000040040000C0040000800402460800020
:1005000080BB0A7C00070300FFFCFFFF030601001D
:1005100004000020006CDC020EBEFEE70DBEFEE70C
:1005200005BEFEE702BEFEE7124A134870B58242DE
:1005300010D1124A124B0021934217D10222114BC3
:100540005A62114B0832DA70104B20329A7300F065
:100550005DFDFEE70E4C00239442EAD0D11888429C
:10056000E7D9E55804330D60F8E702C39342FCD3A2
:10057000E4E7C04600000020740000200C030020C7
:1005800074000020FC700041005000410048004110
:10059000281E000010B5074A074B0849904200D9B1
:1005A00010BD4408DC6119801C7DE407FCD50130D6
:1005B000FF30F3E7FFFF03000040004102A5FFFF0B
:1005C0000F4BF0B59C460F4C0F4F8008002800D110
:1005D000F0BD63462380237DDB07FCD500239D000F
:1005E0004E5901335651102B01D09842F7D1278034
:1005F000257DED07FCD59D0052194919C01AE5E784
:1006000044A5FFFF0040004104A5FFFF70B5431C57
:100610001DD00121430D0B400D4D020C5C01DB018F
:10062000141B5B191D194035CC402E780A400E432F
:1006300092000E319140C0B290401B192E703033A1
:100640001C788C431C7019780843C0B2187070BDB8
:1006500000440041012330B5941E8B40C001012CA1
:1006600001D9002A11D1114C05196B60022A06D15B
:100670000624AB610E4B0818C018047030BD02246C
:10068000032AF7D16B610434F4E7042A07D1074A3F
:1006900082189361054A022482189360EAE7052ACA
:1006A000F8D1024A82185361F4E7C0460044004181
:1006B00040440041074BC001C01801238B40006A31
:1006C0001840002A03D143425841C0B27047431E2C
:1006D0009841FAE700440041064B074A196883082D
:1006E000914201D10C2343430022934200D1704731
:1006F0000132FAE704000020006CDC02024A537861
:100700005BB2002BFBDB7047000C004037B50020CC
:10071000802400F027FCA4010C4D01AA40212800F0
:1007200000F0C2FB019A002A09D0002305E0E85C32
:10073000195D884208D101339BB29A42F7D8403400
:10074000002AE9D101203EBD0020FCE7580200202C
:10075000F7B5294C012800D0284C294800F038FA78
:10076000002841D1200000F0DDFA00283CD1FFF73D
:10077000CDFF002803D0FA204000FFF7CBFC00207B
:1007800000F0F0FB80248020A4018001FFF702FF2D
:10079000402627001B4D3200FF21280001F0E3F91D
:1007A00001AA3100280000F07FFB0198002808D042
:1007B000154B9C421AD93800FFF7ECFE3F20FFF79B
:1007C000A9FC019B4034002BE4D1FFF79FFF0028D8
:1007D00006D180208001FFF7DDFE1F20FFF79AFC85
:1007E000FA208000FFF796FC0320FEBD22002900BE
:1007F000FFF7E6FEE5E7C0461400002008000020F1
:100800002C02002058020020FFFF0300022210B536
:100810000A4C236893432360E3699B07FCD441009F
:10082000074801F00BF902230138C0B22073226897
:1008300013432360E3699B07FCD410BD00180042FA
:10084000006CDC0210B5042212210020FFF702FF29
:1008500010BD0000054A936A5B0A5B021843906270
:10086000137E5B07FCD5906AC0B270470018004247
:1008700043B270B504000D00002B07DA0021772089
:10088000FFF7F6FF012827D87F231C40FFF7B8FBAE
:100890002000FFF7DFFF280EFFF7DCFF280CC0B2B7
:1008A000FFF7D8FF280AC0B2FFF7D4FFE8B2FFF77E
:1008B000D1FF9520402C03D09438482C00D18630AD
:1008C000FFF7C8FF0A24FF20FFF7C4FF030603D584
:1008D000013CE4B2002CF6D170BD000073B5FA25DE
:1008E000FFF7B0FF6424FFF78BFBAD00013C28004D
:1008F000E4B2FFF7F1FE002CF8D10A34013CFF20EE
:10090000E4B2FFF7A7FF002CF8D121004020FFF749
:10091000AFFF0500012842D1D52148204900FFF74B
:10092000A7FF01283DD1FF20FFF794FF01AD6055DF
:100930000134042CF7D1AB78012B30D1EB78AA2B02
:100940002DD18026264CF6053100E920FFF790FFD7
:10095000011E1ED17A20FFF78BFF00281FD1040053
:10096000FF20FFF777FF28550134042CF8D12B78AE
:100970000C255B0600D425001A4B1D70FFF762FFA3
:10098000002D02D01848FFF741FF68426841C0B20D
:1009900076BD6420013CFFF79FFE002CD4D10025DA
:1009A000EAE72100E920FFF763FF4126012801D88B
:1009B0000225E9260A4C00213000FFF759FF0028E4
:1009C00007D1802150208900FFF752FF0028E6D18F
:1009D000D2E76420013CFFF77FFE002CEBD1DEE77D
:1009E0001027000092000020808D5B00F8B51E00EB
:1009F0001A4B05001B7817001B0700D44902512031
:100A0000FFF736FF002808D1154CFF20FFF722FF23
:100A1000FF2804D1013C002CF7D1012419E0FE2865
:100A2000FBD1104CA41BE41B002F04D0FF20FFF7C8
:100A300011FF013FF8E7AE19FF20FFF70BFF287009
:100A40000135AE42F8D1FF20013CFFF703FF002C37
:100A5000F9D1FFF7F7FE2000F8BDC0469200002054
:100A6000409C000002020000064B1A68831E916839
:100A700000200239994203D99078434350691818ED
:100A80007047C04694000020084B1B681A7800236A
:100A9000032A04D1427D037D120213431B04C27E4C
:100AA000807E1202104318437047C0469400002015
:100AB00000210F4B70B51A6883680400018018008C
:100AC000012B14D0956801209D4210D98B4206D18C
:100AD00010781369032802D0E160106905E0E36033
:100AE000002BFAD01800FFF7BFFF2061002070BD77
:100AF0009400002013B5012801D8012028E0154BEF
:100B000019688B688342F8D90B78022B11D0032B1C
:100B1000F3D17F22C9680240C00941189200042322
:100B200001A8FFF763FF0028E7D1019B1801000926
:100B30000EE0C968C2B201AC000A411852002000A0
:100B4000FFF754FF0028D8D1637820781B021843A0
:100B500016BDC04694000020FF2270B5022352004B
:100B600004000D00FFF742FF0323002818D163782B
:100B700022781B021A43144912B202238A420FD16F
:100B8000362229002000FFF731FF00280AD16278C1
:100B90002378120213430D4A1BB2934202D1002361
:100BA000180070BD0223522229002000FFF71EFF0B
:100BB00001230028F4D16178227809020A4303490D
:100BC00012B28A42ECD1EAE755AAFFFF4641000083
:100BD0000022F0B54F4B8DB01A600700FFF77EFE84
:100BE0000123184004000220002C10D103AE210084
:100BF0003000FFF7B1FF012815D1DF22102352008A
:100C000021003000FFF7F2FE002802D001200DB0D5
:100C1000F0BD3379002B01D10620F8E7059C3000A8
:100C20002100FFF799FF0328F0D00028F4D12423F6
:100C30000D2221003000FFF7D9FE0028E6D1B37A5B
:100C4000757A1B021D430CD11B2202ABD2185378BC
:100C500015781B022B4395782D042B43D5782D0650
:100C60001D43F378B0785D43737800021843317800
:100C70000419FC60B9707279337912021A436B4619
:100C800001929B88BB80F3791B029C46B379664630
:100C900033430ED102AA17339B181E78B44662461E
:100CA0005E78360216439A78DB78120416431B06E8
:100CB0003343019A181A1609401B801B00F0BEFE30
:100CC000154A1649831C8018BB60154A884206D90C
:100CD000934206D8A0E702233B70631910E09342C9
:100CE000F9D9032323213B7002ABC9184A780B784A
:100CF00012021A438B781B041A43CB781B0613434A
:100D000000203B61A419034B65197D6178701F6059
:100D10007DE7C046940000200AF0FFFFFEEF0000D0
:100D2000F6FF0000F0B55F4B93B01B680400009322
:100D30000520002B38D00023009A537002AB069395
:100D40002378202B27D02F3B5A4253410025E4180B
:100D5000237807951F2B20D90195069D2A002B008B
:100D60000B32934222D1002108230F000B26E25DB3
:100D7000781CC0B2202A1DD92F2A1BD02E2A00D1C0
:100D80008CE08B4216D94F1C6A541A00FBB2190032
:100D900007001300EBE70134D2E705A8FFF788FE50
:100DA0000AAB1D70002864D013B0F0BD202119706B
:100DB0000133D6E724182020019B90425B4105A80F
:100DC000EB72FFF775FE0028EED10F2305AE3288D7
:100DD0000AAD1A405201113331692800FFF706FEAF
:100DE000002801D00120DFE72B78002B01D1032060
:100DF000DAE70823EA7A134006D1280071685F1CFD
:100E00001D5CCB5C9D4217D035880135ADB2002DFD
:100E1000EDD03369002BEAD00F22154209D1214AC7
:100E2000F068013317683361002811D1BB88AB42E9
:100E3000DDD905AB1D80C8E73B000B2FDFD1CB7A96
:100E4000002B16D1D306D2D5FFF71EFE079084E7FC
:100E5000BB782A09013B1A42EBD1FFF74BFE012870
:100E6000C0D9BB689842C2D2F060FFF7FDFD306187
:100E7000DFE70AAB1A78002AB9D01020DC7A0440E8
:100E8000B5D11800FFF700FE009B119A1862DA61D5
:100E90009C610123009A2000537085E7082B89D1BB
:100EA000320074E7940000202D4BF7B51C68002336
:100EB00001901700136005209C422ED06378013802
:100EC000DB072AD5E369A2699D1A8D4200D90D007E
:100ED000019B0093002D01D128001EE0A369DA05D3
:100EE0001ED1A0785E0A01380640F6B2002E0DD160
:100EF000002B06D1206A012807D800230120637047
:100F00000BE0606AFFF7F6FDF5E76062606AFFF7E5
:100F1000ABFD002802D160700130FEBD3618A6621C
:100F2000A3692E00DA058023D20D9B009B1A9D42F7
:100F300000D91E000198002800D000983300A16A53
:100F4000FFF754FD0028D8D1A369AD1B9B19A361FD
:100F5000009B9B1900933B689E193E60BAE7C04610
:100F600094000020F7B5284A030014680520002CDF
:100F70003BD062780138D20737D5E5699D4200D968
:100F80001D000020A769A06185422ED0A6787602B8
:100F900087421DD03100681E00F050FD013F0190D6
:100FA0003100380000F04AFD019B834210D37342A8
:100FB0003B40606AA361ED1AB5420CD8A369ED18F5
:100FC000A561FFF751FD002816D1607001300CE0DB
:100FD000206A6062F0E7FFF78DFD012802D9A3685F
:100FE000834203D8002301206370FEBDA3696062C1
:100FF0009B19A361AD1BDFE7A3786D0A013B1D4080
:101000002818A0620020F0E794000020F8B5304EC8
:1010100000AF33682F4D013319D0F3B2002B16D136
:101020002D4A1478E407E40F0BD02C4A1360336880
:1010300083F30888FF2332009A43AA607368184735
:1010400005E02649264B0A689A4239D10C60FFF721
:10105000F9F962B6FEF7D4FFC021224A224B0906F5
:1010600053602B6A00241B021B0A0B432B620723CD
:1010700094600621136020000222FFF7EBFA2200A1
:1010800006212000FFF716FBA04202D00120FFF747
:101090005FFB00F037F8042204000125134B1A709F
:1010A000A36820009847124B002800D01D701B78C1
:1010B000002BF5D0002000F067FA00F0BDFAFCE745
:1010C000064A0C481360FFF707FB044A1460AEE7BA
:1010D0000020000000ED00E038040040FC7F00200C
:1010E0003581730710E000E0BF030000000000201E
:1010F0009800002020A1070010B5FEF7C5FF00F002
:1011000099FA10BD10B5054B054C2360FFF760F848
:1011100021682000FFF750F8200010BD005000416A
:101120009802002070B50500C0B0080016000C0041
:1011300000F021FD6B464000023018706A46032320
:1011400076085370023B5A1EA15C5A00002901D058
:101150009E4206DC002369462800FFF791F840B064
:1011600070BD684601338152EDE70000F7B50468B1
:10117000070020001023B34AFF300372B2491378EE
:10118000B24E0B705378B2490B7093783380D3789A
:1011900035881B022B4333801579AE4B1D801D888B
:1011A000AC46614655792D020D431D809179AA4DBB
:1011B0002980D279298812020A432A80402242716A
:1011C000A34AA1491278097812020A43A3498A4224
:1011D00000D1B8E01EDC822A00D195E00ADC802A2A
:1011E00000D18CE0812A00D189E001212000FFF7A5
:1011F000CBF876E0812149008A4200D1C4E0984BC7
:101200009A4203D00223FF339A42EED12000FFF727
:10121000C5F866E090231B019A4200D162E015DC1C
:10122000D023DB009A421BD088231B019A4200D1B5
:1012300061E0A023DB009A42D7D12000FFF7AEF88F
:101240003188386889B2FFF7BBF84AE0854B9A428B
:1012500000D11BE1844B9A4200D120E1834BD3E7BC
:1012600033881B0A012B0BD112222B88934201D801
:101270002A8892B200237E492000FFF701F830E06F
:1012800033881B0A022B08D143222B88934201D8B2
:101290002A8892B200237749EEE733881B0A032B92
:1012A000A3D13388DBB2012B15D0002B05D0022B44
:1012B0009BD12A887049D2B210E004226F4901A85C
:1012C00000F048FC04222B88934201D82A8892B26D
:1012D000002301A9D0E72A886949D2B22000FFF78C
:1012E00021FFF7BD338820003B71FFF757F820003E
:1012F000FFF76CF8F5E7391D00230122BCE7002356
:1013000060490B800222B7E7002250200F255D497B
:101310000A801A8802405C4802701A882A401A80A3
:101320001A88032A00D960E702781B8808335B011A
:10133000E3189B79002A04D09B06DB0F0B80002367
:10134000E0E7DB06F9E780210F201A880A404E49C2
:101350000A701A8802401A803288002A00D044E7B6
:101360001A88002A00D140E71A88032A00D93CE7EE
:101370000A781B8808335B01E318002A02D0202278
:101380005A7143E71022FBE780210F201A880A4098
:101390003D490A701A8802401A803288002A00D01B
:1013A00023E71A88002A00D11FE71A88032A00D9E8
:1013B0001BE70A78002A22D01A8808325201A218A4
:1013C0009279920600D421E720211A88083252012E
:1013D000A21811711A8808325201A218D279520645
:1013E00000D413E71A88491808325201A218D171A3
:1013F00002221B8808335B01E3181A7106E71A887A
:1014000008325201A2189279D20600D4FEE61021C9
:101410001A8808325201A21811711A880832520132
:10142000A218D279920600D4F0E61A884918083238
:101430005201A218D1711B88012208335B01E31805
:10144000DBE7C046AC0000209A000020A20000208C
:10145000990000209C0000209E0000200203000054
:1014600001030000A1210000212200002120000032
:10147000A01B000020000020BE1B00009C1B0000E1
:10148000B21B0000A00000209B00002008222B8837
:10149000934201D82A8892B200230249ECE63388AD
:1014A0007B71B3E664000020012307B50190044876
:1014B0001A0001A90068FEF7E3FE01200EBDC04638
:1014C0009802002013B56B46DC1D044B012221005D
:1014D0001868FEF71BFF207816BDC0469802002052
:1014E00010B5074C2000FEF725FE030000208342C4
:1014F00005D048232268FF33D05CC007C00F10BD61
:101500009802002010B50C000A00010003480123D6
:101510000068FEF7B5FE200010BDC046980200200E
:1015200070B5084C050020000E00FEF703FE030016
:101530000020834204D0320029002068FEF7E6FE36
:1015400070BDC04698020020F8B50B4F0600380069
:101550000D00FEF7EFFD2C00002808D1050008E083
:10156000220031003868FEF7D1FE241A3618002C0C
:10157000F6D12800F8BDC0469802002010B503003F
:1015800008001100984710BD002802D1014B024A03
:101590001A607047FC020020081C0000F0B51A4BCE
:1015A0000A001B78194985B00C680100002B14D083
:1015B000042A17D100680F263027520004AB9B186D
:1015C0000B3B9D1AAB4213D10A20114B01A90B8092
:1015D0008B1898700330D8700432E068FFF7CEFFA4
:1015E00005B0F0BD022A01D10088E4E70078E2E707
:1015F00001003140092904D8394319700009013B21
:10160000E0E73731F9E7C046A5000020FC020020E2
:101610003078000080B500AF72B6EFF30883044A5B
:101620001360036883F3088843681847BD4680BD8C
:1016300000030020704700000023F0B5D14C85B0B6
:10164000D14A00AF23607A3313703B60CF4BD04D4B
:101650001B6840211B6928009847CE4BCE4A186072
:10166000CE4B1D6000231360CA4BCB4D1B687B60C3
:101670007A682B689342E9D2C84B1B681B78FF2B12
:1016800059D0232B00D071E1C54E3378002B06D002
:10169000BE4B02221B68C349D868FFF76FFFBA4BE5
:1016A0001B78532B51D1BB4B1A682B689A421AD91D
:1016B000BA4EBD490133086831682B600131316091
:1016C000D31ABA4E83423ED233603268206800F0AB
:1016D00041FA33682A68B149D2182A600A68D218D8
:1016E0000A60B34A1370AC4BAB4A1B687B60013B8A
:1016F0001360AA4A1368013B1360AD4BAA4A1B78DA
:1017000011688B4205D2C91AA04B20681B689B69DF
:101710009847C0469C4B3A781A700022A24B1A6038
:101720009F4B1B78934206D0984B01321B68A1490E
:10173000D868FFF723FF984A136801331360974A6C
:10174000136801338FE73060BFE7522B08D18F4B0E
:10175000954A1B68126821685869FFF70FFFD9E79F
:101760004F2B04D1904B22681B681370D2E7482B93
:1017700004D18D4B22681B681380CBE7572B04D113
:10178000894A236812681A60C4E76F2B04D10121CB
:101790002068FFF703FFBDE7682B05D12368824867
:1017A0001B8802210360F4E7772B05D123687E486C
:1017B0001B6804210360ECE7472B12D17A4B1868B1
:1017C000FFF728FF7C4B1B6883F3088862B67B4BCE
:1017D0001B78002B9ED06D4B06201B681B6898471A
:1017E00098E7542B09D1533B3370684B1B68022296
:1017F0006C49D868FFF7C2FE8CE74E2B0DD13378C9
:10180000002B06D1614B02221B686649D868FFF79E
:10181000B5FE0022624B1A707CE7562B58D15B4B09
:1018200001221B686649D868FFF7A8FE574B0322C0
:101830001B686449D868FFF7A1FE544B624D1B68D2
:1018400001222900D868FFF799FE504B0D221B6832
:101850005E49D868FFF792FE4C4B01221B682900B5
:10186000D868FFF78BFE5A4B4C4E4B4A336000232F
:101870001100136033685A1C32601B780A687B6061
:10188000002B1FD1414D52492B68D868FFF776FED7
:101890002B6801224C49D868FFF770FE3E4B4D493A
:1018A00018007A6831603D4E1A6033685A1C326005
:1018B0001B780268002B08D12B68D868FFF75EFE02
:1018C0002B6894E701320A60D4E701320260ECE74A
:1018D000354A582B07D11068FEF75CFE2B4B0322CC
:1018E0001B683D4985E7592B0ED110683B4B226898
:1018F000002805D11A60254B03221B68384978E778
:101900001968FEF75DFEF6E75A2B00D002E70025C6
:1019100026681368F3187B607B68B3421FD11B4EA7
:10192000012233682F49D868FFF728FE07230F22CA
:101930002A40D0B201002D093031092A00DD0731DB
:101940000822BA18D154013BF1D208223368B918E1
:10195000D868FFF713FE33680322234949E730783C
:10196000290000F05FF801360500D5E7190030398D
:10197000C8B20D4A092839D813681B010B431360FC
:10198000D9E6C046F8020020B0020020FC02002088
:10199000B8020020A8020020B4020020AC020020FF
:1019A000A5000020011C0000040300200803002003
:1019B000A4020020041C000000030020A40000205A
:1019C000DD1B0000D91B0000DF1B0000CB1B00004B
:1019D000E11B0000ED1B0000F61B0000A80000202A
:1019E000FA1B0000FE1B0000001C0000190041391A
:1019F000052903D81168373B0901BFE71900613990
:101A0000052903D81168573B0901B7E72C2B03D1EF
:101A1000136823600023B2E701490B70FAE7C04660
:101A2000B00200200B0A4340034A5B00985A0902A7
:101A3000484080B27047C046241C00000022430882
:101A40008B4274D303098B425FD3030A8B4244D386
:101A5000030B8B4228D3030C8B420DD3FF220902C8
:101A600012BA030C8B4202D31212090265D0030B87
:101A70008B4219D300E0090AC30B8B4201D3CB037D
:101A8000C01A5241830B8B4201D38B03C01A5241BF
:101A9000430B8B4201D34B03C01A5241030B8B42C1
:101AA00001D30B03C01A5241C30A8B4201D3CB02AC
:101AB000C01A5241830A8B4201D38B02C01A524191
:101AC000430A8B4201D34B02C01A5241030A8B4294
:101AD00001D30B02C01A5241CDD2C3098B4201D3AC
:101AE000CB01C01A524183098B4201D38B01C01A2A
:101AF000524143098B4201D34B01C01A52410309A1
:101B00008B4201D30B01C01A5241C3088B4201D34F
:101B1000CB00C01A524183088B4201D38B00C01AFC
:101B2000524143088B4201D34B00C01A5241411A23
:101B300000D20146524110467047FFE701B5002030
:101B400000F006F802BDC0460029F7D076E77047DE
:101B50007047C046002310B59A4200D110BDCC5C3E
:101B6000C4540133F8E703001218934200D17047C0
:101B700019700133F9E70023C25C0133002AFBD15D
:101B8000581E7047F8B5C046F8BC08BC9E46704762
:101B9000F8B5C046F8BC08BC9E467047040309046B
:101BA000120100020200004041234D000002010228
:101BB000000141726475696E6F204C4C43004172A4
:101BC0006475696E6F205A65726F005B417264754F
:101BD000696E6F3A58595A5D00322E3000760020F7
:101BE000004E6F7620203620323032310031323ACA
:101BF00031323A353700580A0D00590A0D005A00A3
:101C0000230A0D003E000000A9140000C5140000C6
:101C1000E114000005150000211500000515000065
:101C20004915000000002110422063308440A55077
:101C3000C660E770088129914AA16BB18CC1ADD112
:101C4000CEE1EFF13112100273325222B5529442BA
:101C5000F772D662399318837BB35AA3BDD39CC362
:101C6000FFF3DEE36224433420040114E664C77406
:101C7000A44485546AA54BB528850995EEE5CFF5B2
:101C8000ACC58DD55336722611163006D776F6665A
:101C90009556B4465BB77AA719973887DFF7FEE702
:101CA0009DD7BCC7C448E5588668A7784008611826
:101CB00002282338CCC9EDD98EE9AFF94889699952
:101CC0000AA92BB9F55AD44AB77A966A711A500AFA
:101CD000333A122AFDDBDCCBBFFB9EEB799B588BA2
:101CE0003BBB1AABA66C877CE44CC55C222C033C46
:101CF000600C411CAEED8FFDECCDCDDD2AAD0BBDF2
:101D0000688D499D977EB66ED55EF44E133E322E99
:101D1000511E700E9FFFBEEFDDDFFCCF1BBF3AAF41
:101D2000599F788F8891A981CAB1EBA10CD12DC19F
:101D30004EF16FE18010A100C230E3200450254035
:101D400046706760B9839893FBA3DAB33DC31CD395
:101D50007FE35EF3B1029012F322D2323542145285
:101D600077625672EAB5CBA5A89589856EF54FE5E1
:101D70002CD50DC5E234C324A014810466744764D5
:101D800024540544DBA7FAB79987B8975FE77EF735
:101D90001DC73CD7D326F2369106B0165766767625
:101DA000154634564CD96DC90EF92FE9C899E98901
:101DB0008AB9ABA94458654806782768C018E10875
:101DC0008238A3287DCB5CDB3FEB1EFBF98BD89BD5
:101DD000BBAB9ABB754A545A376A167AF10AD01AC5
:101DE000B32A923A2EFD0FED6CDD4DCDAABD8BAD21
:101DF000E89DC98D267C076C645C454CA23C832C15
:101E0000E01CC10C1FEF3EFF5DCF7CDF9BAFBABF74
:101E1000D98FF89F176E367E554E745E932EB23E64
:081E2000D10EF01E00000000CD
:101E28000814050040420F00555044415445322ED5
:101E380042494E005550444154452E42494E0000F7
:101E48000902430002010080320904000001020275
:101E580000000524001001042402000524060001E6
:101E68000524010001070583030800FF0904010098
:101E7800020A00000007058102400000070502026F
:101E88004000000000C201000000080069000000D6
:041E98004100000005
:0400000300000529CB
:00000001FF
