:10000000FC7F002099040000890400008D0400009A
:1000100000000000000000000000000000000000E0
:10002000000000000000000000000000910400003B
:1000300000000000000000009504000069100000AE
:1000400010B5064C2378002B07D1054B002B02D0AE
:10005000044800E000BF0123237010BD740000209D
:1000600000000000381E0000044B10B5002B03D028
:100070000349044800E000BF10BDC0460000000076
:1000800078000020381E000010B572B6FA24640013
:100090004443200000F0C8FAFBE700000368082191
:1000A0001A0070B50400988BFF32084227D099835C
:1000B0007831997211234020C0255370134B9071F1
:1000C00051715968124EAD05314029435960596943
:1000D00031400D430F495D6119600F490F4D1961A2
:1000E00059680D4080218902294359605968890B5C
:1000F00089035960002350712371207970BD137AF0
:10010000DB06FAD5200000F0E7FFF6E7B00100209B
:10011000FFFFFF8FB000002030010020FF3F00F004
:1001200000238380034B0A7883600223134301601A
:100130000B7070479D0000000123254A10B591699E
:1001400024480B43936100F009FA234800F006FAB3
:100150004023224A136011681942FCD082230122F5
:10016000DB0519780A431A709A78D207FCD41F204D
:100170001B4B1A68530B0340834200D10523910C9B
:1001800001401F2900D102399201520F072A00D1E4
:10019000043A9B010B431203134382227F21D205B1
:1001A000138513780F480B401370042311780B4309
:1001B0000C211370506213898B43138113890B39FF
:1001C0008B4313810021802201F0D7FC10BDC04673
:1001D00000040040060018000600190090180040B6
:1001E00020608000B0010020F7B5009001201E4E75
:1001F0001C005B0117000193F218536910325B0079
:100200005B0F03339840B84221D8802350681B0607
:10021000034353606301F61831617369B9049B0BA2
:10022000890C9B030B4373617369104908340B40BD
:100230007361009B64011C190223E3716279823BA4
:1002400013436371E3799B07FCD53800FEBD25009D
:100250006B1E9D41064BAD01ED183A00280001F0E0
:1002600083FC2900D6E7C046B0010020FF3F00F024
:1002700030010020F8B51A4F06003B780800140042
:10028000002B12D1174B184A18491A645A6C920B5A
:1002900092035A645A6C0A405A64A22240235200C4
:1002A000B15C0B43B35401233B704825FF35735DAC
:1002B000DB07DB0F12D00B4A536C9B049B0CA34251
:1002C00002D2546CA404A40C2200074901F04CFC97
:1002D0000123735500233B702000F8BD1C00FBE791
:1002E00090000020B0010020F0000020FF3F00F04F
:1002F000FF3082792023002900D11023134383711A
:1003000070470000074AFF3053699B0B9B03536102
:10031000022303728279823B13438371037A9B0722
:10032000FCD57047B001002080235B421943C9B25D
:1003300081727047A0230322C02170B55B00C254B4
:10034000124B134C5A6C890522400A435A644622C8
:100350004025FF3285540F4A30261A6490225200FD
:1003600086545A6B224011439222596380215200D5
:100370008154094A1A63B022520085545A6F2240B0
:100380005A67B2235B00C15470BDC046B001002063
:10039000FFFFFF8FF0000020700100208023034941
:1003A0005B00CA681A42FCD07047C046000C00408F
:1003B000802270B5294B2A4E59680A435A6004229C
:1003C00059680A435A6040237269022113437361DA
:1003D00080230122DB059A719878014399709979FD
:1003E0001142FCD001211F4D9A711F4B2A702A78AF
:1003F0000A4202D06A681A42F9D180221B4C238B30
:1004000093432383FFF7CAFF8022194B92001B6896
:100410009B0E9B021343E361164B236292235B0006
:100420002383FFF7BBFF0223228B13432383FFF7B2
:10043000B5FF114B2B6200F009F90C22237D934389
:100440001A000423134323750C4BEB6200F0FEF8F3
:100450000B4B0C4A1A600123337170BD0040004100
:100460000004004000180040FD070000000C0040A0
:100470002060800080BB0A7C0703010006010100A8
:1004800004000020006CDC020EBEFEE70DBEFEE79D
:1004900005BEFEE702BEFEE70D4A0E4870B5824279
:1004A00007D10D4A0D4B002193420ED100F058FDAB
:1004B000FEE70B4C00239442F3D0D1188842F0D9C8
:1004C000E55804330D60F8E702C39342FCD3EDE72F
:1004D00000000020740000201003002074000020A1
:1004E0003C1E000010B5074A074B0849904200D94E
:1004F00010BD4408DC6119801C7DE407FCD5013087
:10050000FF30F3E7FFFF03000040004102A5FFFFBB
:100510000F4BF0B59C460F4C0F4F8008002800D1C0
:10052000F0BD63462380237DDB07FCD500239D00BF
:100530004E5901335651102B01D09842F7D12780E4
:10054000257DED07FCD59D0052194919C01AE5E734
:1005500044A5FFFF0040004104A5FFFF70B5431C08
:100560001DD00121430D0B400D4D020C5C01DB0140
:10057000141B5B191D194035CC402E780A400E43E0
:1005800092000E319140C0B290401B192E70303352
:100590001C788C431C7019780843C0B2187070BD69
:1005A00000280040012330B5941E8B40C001012C6F
:1005B00001D9002A11D1114C05196B60022A06D10C
:1005C0000624AB610E4B0818C018047030BD02241D
:1005D000032AF7D16B610434F4E7042A07D1074AF0
:1005E00082189361054A022482189360EAE7052A7B
:1005F000F8D1024A82185361F4E7C046002800404F
:1006000040280040074BC001C01801238B40006AFE
:100610001840002A03D143425841C0B27047431EDC
:100620009841FAE700280040064A074B12689A42B0
:1006300001D10C2358430023984200D17047013365
:10064000FAE7C04604000020006CDC020249034BBC
:100650004A681A42FCD1704700180040FD070000AC
:1006600037B50020802400F027FCA4010C4D01AA1E
:100670004021280000F0C2FB019A002A09D0002383
:1006800005E0E85C195D884208D101339BB29A42CB
:10069000F7D84034002AE9D101203EBD0020FCE714
:1006A0005C020020F7B5294C012800D0284C2948CD
:1006B00000F038FA002841D1200000F0DDFA0028CF
:1006C0003CD1FFF7CDFF002803D0FA204000FFF710
:1006D000DBFC002000F0F0FB80248020A4018001DE
:1006E000FFF700FF402627001B4D3200FF212800A6
:1006F00001F043FA01AA3100280000F07FFB0198C5
:10070000002808D0154B9C421AD93800FFF7EAFEA2
:100710003F20FFF7B9FC019B4034002BE4D1FFF7E9
:100720009FFF002806D180208001FFF7DBFE1F20FD
:10073000FFF7AAFCFA208000FFF7A6FC0320FEBD0D
:1007400022002900FFF7E4FEE5E7C0461400002080
:1007500008000020300200205C020020FFFF0300A0
:10076000022210B50A4C236893432360E3699B0778
:10077000FCD44100074801F06BF902230138C0B2F4
:100780002073226813432360E3699B07FCD410BDE8
:1007900000100042006CDC0210B50422122100207F
:1007A000FFF700FF10BD0000054A936A5B0A5B0279
:1007B00018439062137E5B07FCD5906AC0B2704705
:1007C0000010004243B270B504000D00002B07DAA0
:1007D00000217720FFF7F6FF012827D87F231C4050
:1007E000FFF70EFC2000FFF7DFFF280EFFF7DCFF0E
:1007F000280CC0B2FFF7D8FF280AC0B2FFF7D4FF19
:10080000E8B2FFF7D1FF9520402C03D09438482C54
:1008100000D18630FFF7C8FF0A24FF20FFF7C4FF8E
:10082000030603D5013CE4B2002CF6D170BD0000F4
:1008300073B5FA25FFF7B0FF6424FFF7E1FBAD00C5
:10084000013C2800E4B2FFF7EFFE002CF8D10A3497
:10085000013CFF20E4B2FFF7A7FF002CF8D12100F4
:100860004020FFF7AFFF0500012842D1D5214820E5
:100870004900FFF7A7FF01283DD1FF20FFF794FFB4
:1008800001AD60550134042CF7D1AB78012B30D188
:10089000EB78AA2B2DD18026264CF6053100E920D5
:1008A000FFF790FF011E1ED17A20FFF78BFF002873
:1008B0001FD10400FF20FFF777FF28550134042CD7
:1008C000F8D12B780C255B0600D425001A4B1D703F
:1008D000FFF762FF002D02D01848FFF741FF684282
:1008E0006841C0B276BD6420013CFFF79DFE002C3C
:1008F000D4D10025EAE72100E920FFF763FF412674
:10090000012801D80225E9260A4C00213000FFF712
:1009100059FF002807D1802150208900FFF752FF9E
:100920000028E6D1D2E76420013CFFF77DFE002CD1
:10093000EBD1DEE71027000091000020808D5B00E6
:10094000F8B51E001A4B05001B7817001B0700D4D2
:1009500049025120FFF736FF002808D1154CFF202F
:10096000FFF722FFFF2804D1013C002CF7D101241E
:1009700019E0FE28FBD1104CA41BE41B002F04D06F
:10098000FF20FFF711FF013FF8E7AE19FF20FFF747
:100990000BFF28700135AE42F8D1FF20013CFFF774
:1009A00003FF002CF9D1FFF7F7FE2000F8BDC04689
:1009B00091000020409C000002020000064B1A68D3
:1009C000831E916800200239994203D990784343ED
:1009D000506918187047C04694000020084B1B68E7
:1009E0001A780023032A04D1427D037D12021343A7
:1009F0001B04C27E807E1202104318437047C0461B
:100A00009400002000210F4B70B51A688368040021
:100A100001801800012B14D0956801209D4210D947
:100A20008B4206D110781369032802D0E160106967
:100A300005E0E360002BFAD01800FFF7BFFF20614C
:100A4000002070BD9400002013B5012801D80120BA
:100A500028E0154B19688B688342F8D90B78022B74
:100A600011D0032BF3D17F22C9680240C00941187D
:100A70009200042301A8FFF763FF0028E7D1019B40
:100A8000180100090EE0C968C2B201AC000A4118A1
:100A900052002000FFF754FF0028D8D16378207857
:100AA0001B02184316BDC04694000020FF2270B5FB
:100AB0000223520004000D00FFF742FF0323002829
:100AC00018D1637822781B021A43144912B2022308
:100AD0008A420FD1362229002000FFF731FF00287B
:100AE0000AD162782378120213430D4A1BB2934253
:100AF00002D10023180070BD0223522229002000D9
:100B0000FFF71EFF01230028F4D161782278090243
:100B10000A43034912B28A42ECD1EAE755AAFFFF21
:100B2000464100000022F0B54F4B8DB01A6007001F
:100B3000FFF77EFE0123184004000220002C10D194
:100B400003AE21003000FFF7B1FF012815D1DF22ED
:100B50001023520021003000FFF7F2FE002802D0DF
:100B600001200DB0F0BD3379002B01D10620F8E74C
:100B7000059C30002100FFF799FF0328F0D00028E2
:100B8000F4D124230D2221003000FFF7D9FE0028E4
:100B9000E6D1B37A757A1B021D430CD11B2202AB3E
:100BA000D218537815781B022B4395782D042B43CC
:100BB000D5782D061D43F378B0785D437378000235
:100BC000184331780419FC60B970727933791202D4
:100BD0001A436B4601929B88BB80F3791B029C46AB
:100BE000B379664633430ED102AA17339B181E7899
:100BF000B44662465E78360216439A78DB78120471
:100C000016431B063343019A181A1609401B801B12
:100C100000F01EFF154A1649831C8018BB60154A58
:100C2000884206D9934206D8A0E702233B70631995
:100C300010E09342F9D9032323213B7002ABC9187A
:100C40004A780B7812021A438B781B041A43CB782C
:100C50001B06134300203B61A419034B65197D61FA
:100C600078701F607DE7C046940000200AF0FFFF07
:100C7000FEEF0000F6FF0000F0B55F4B93B01B687D
:100C8000040000930520002B38D00023009A5370F5
:100C900002AB06932378202B27D02F3B5A42534197
:100CA0000025E418237807951F2B20D90195069D70
:100CB0002A002B000B32934222D1002108230F007F
:100CC0000B26E25D781CC0B2202A1DD92F2A1BD02A
:100CD0002E2A00D18CE08B4216D94F1C6A541A0080
:100CE000FBB2190007001300EBE70134D2E705A8B7
:100CF000FFF788FE0AAB1D70002864D013B0F0BD6A
:100D0000202119700133D6E724182020019B90423E
:100D10005B4105A8EB72FFF775FE0028EED10F23AB
:100D200005AE32880AAD1A405201113331692800EC
:100D3000FFF706FE002801D00120DFE72B78002B0B
:100D400001D10320DAE70823EA7A134006D128000C
:100D500071685F1C1D5CCB5C9D4217D035880135E6
:100D6000ADB2002DEDD03369002BEAD00F22154231
:100D700009D1214AF068013317683361002811D185
:100D8000BB88AB42DDD905AB1D80C8E73B000B2F0C
:100D9000DFD1CB7A002B16D1D306D2D5FFF71EFEBA
:100DA000079084E7BB782A09013B1A42EBD1FFF791
:100DB0004BFE0128C0D9BB689842C2D2F060FFF751
:100DC000FDFD3061DFE70AAB1A78002AB9D01020A8
:100DD000DC7A0440B5D11800FFF700FE009B119AA1
:100DE0001862DA619C610123009A2000537085E744
:100DF000082B89D1320074E7940000202D4BF7B501
:100E00001C68002301901700136005209C422ED01F
:100E100063780138DB072AD5E369A2699D1A8D4200
:100E200000D90D00019B0093002D01D128001EE088
:100E3000A369DA051ED1A0785E0A01380640F6B231
:100E4000002E0DD1002B06D1206A012807D80023DF
:100E5000012063700BE0606AFFF7F6FDF5E7606262
:100E6000606AFFF7ABFD002802D160700130FEBD63
:100E70003618A662A3692E00DA058023D20D9B00E6
:100E80009B1A9D4200D91E000198002800D00098AE
:100E90003300A16AFFF754FD0028D8D1A369AD1B28
:100EA0009B19A361009B9B1900933B689E193E60B0
:100EB000BAE7C04694000020F7B5284A030014683A
:100EC0000520002C3BD062780138D20737D5E56980
:100ED0009D4200D91D000020A769A06185422ED047
:100EE000A678760287421DD03100681E00F0B0FD62
:100EF000013F01903100380000F0AAFD019B8342C0
:100F000010D373423B40606AA361ED1AB5420CD81E
:100F1000A369ED18A561FFF751FD002816D1607097
:100F200001300CE0206A6062F0E7FFF78DFD0128D8
:100F300002D9A368834203D8002301206370FEBD59
:100F4000A36960629B19A361AD1BDFE7A3786D0AFB
:100F5000013B1D402818A0620020F0E7940000200B
:100F6000F8B5344E00AF3368334D013319D0F3B2C6
:100F7000002B16D1314A1478E407E40F0BD0304A25
:100F80001360336883F30888FF2332009A43AA6012
:100F90007368184705E02A492A4B0A689A4241D1EA
:100FA0000C60FFF705FA62B608222749274B0A6052
:100FB000274900240A608022C02112059A609A61A4
:100FC000244A254B090653602B6A20001B021B0A8A
:100FD0000B432B6207239460062113600222FFF764
:100FE000E1FA220006212000FFF70CFBA04202D00C
:100FF0000120FFF757FB00F03BF804220400012515
:10100000164B1A70A36820009847154B002800D093
:101010001D701B78002BF5D0002000F077FA00F04F
:10102000EFFAFCE7064A0F481360FFF7FDFA044A9F
:101030001460A6E70020000000ED00E0000800407A
:10104000FC7F00203581730788280040002800407D
:101050009828004010E000E0BF03000000000020DE
:101060009800002020A1070010B500F0A5FA10BDDF
:10107000822310B5054CDB052360FFF75DF821687E
:101080002000FFF74DF8200010BDC0469C02002054
:1010900070B50500C0B0080016000C0000F075FD2A
:1010A0006B464000023018706A460323760853707E
:1010B000023B5A1EA15C5A00002901D09E4206DC68
:1010C000002369462800FFF78FF840B070BD6846DE
:1010D00001338152EDE70000F7B5046807002000F6
:1010E0001023B34AFF300372B2491378B24E0B702B
:1010F0005378B2490B7093783380D37835881B02CC
:101100002B4333801579AE4B1D801D88AC4661465C
:1011100055792D020D431D809179AA4D2980D279F0
:10112000298812020A432A8040224271A34AA14917
:101130001278097812020A43A3498A4200D1B8E022
:101140001EDC822A00D195E00ADC802A00D18CE0E6
:10115000812A00D189E001212000FFF7C9F876E05B
:10116000812149008A4200D1C4E0984B9A4203D0C1
:101170000223FF339A42EED12000FFF7C3F866E066
:1011800090231B019A4200D162E015DCD023DB00E2
:101190009A421BD088231B019A4200D161E0A02310
:1011A000DB009A42D7D12000FFF7ACF831883868CD
:1011B00089B2FFF7B9F84AE0854B9A4200D11BE1AA
:1011C000844B9A4200D120E1834BD3E733881B0A3A
:1011D000012B0BD112222B88934201D82A8892B27C
:1011E00000237E492000FEF7FFFF30E033881B0A12
:1011F000022B08D143222B88934201D82A8892B22D
:1012000000237749EEE733881B0A032BA3D13388E9
:10121000DBB2012B15D0002B05D0022B9BD12A88E5
:101220007049D2B210E004226F4901A800F09CFC82
:1012300004222B88934201D82A8892B2002301A964
:10124000D0E72A886949D2B22000FFF721FFF7BD15
:10125000338820003B71FFF755F82000FFF76AF84C
:10126000F5E7391D00230122BCE7002360490B800C
:101270000222B7E7002250200F255D490A801A8814
:1012800002405C4802701A882A401A801A88032A91
:1012900000D960E702781B8808335B01E3189B796B
:1012A000002A04D09B06DB0F0B800023E0E7DB065F
:1012B000F9E780210F201A880A404E490A701A88DF
:1012C00002401A803288002A00D044E71A88002A97
:1012D00000D140E71A88032A00D93CE70A781B8826
:1012E00008335B01E318002A02D020225A7143E739
:1012F0001022FBE780210F201A880A403D490A701E
:101300001A8802401A803288002A00D023E71A88FF
:10131000002A00D11FE71A88032A00D91BE70A78A0
:10132000002A22D01A8808325201A2189279920615
:1013300000D421E720211A8808325201A218117125
:101340001A8808325201A218D279520600D413E743
:101350001A88491808325201A218D17102221B883A
:1013600008335B01E3181A7106E71A880832520144
:10137000A2189279D20600D4FEE610211A8808320B
:101380005201A21811711A8808325201A218D2799A
:10139000920600D4F0E61A88491808325201A218C1
:1013A000D1711B88012208335B01E318DBE7C046DB
:1013B000B00000209A000020A20000209900002028
:1013C0009C0000209E00002002030000010300009A
:1013D000A12100002122000021200000B41B0000F8
:1013E00020000020D21B0000B01B0000C61B000024
:1013F000A00000209B00002008222B88934201D8E7
:101400002A8892B200230249ECE633887B71B3E666
:1014100064000020012307B5019004481A0001A9C7
:101420000068FEF7E1FE01200EBDC0469C020020D0
:1014300013B56B46DC1D044B012221001868FEF732
:1014400019FF207816BDC0469C02002010B5074C3D
:101450002000FEF723FE03000020834205D048232E
:101460002268FF33D05CC007C00F10BD9C02002073
:1014700010B50C000A000100034801230068FEF7C4
:10148000B3FE200010BDC0469C02002070B5084C81
:10149000050020000E00FEF701FE0300002083423D
:1014A00004D0320029002068FEF7E4FE70BDC0467B
:1014B0009C020020F8B50B4F060038000D00FEF727
:1014C000EDFD2C00002808D1050008E022003100C5
:1014D0003868FEF7CFFE241A3618002CF6D1280003
:1014E000F8BDC0469C020020030010B508001100A2
:1014F00098478022034B12055A616422024B1A80DE
:1015000010BDC04600280040AC000020002802D1D9
:10151000014B024A1A607047000300201C1C0000A7
:10152000F0B51A4B0A001B78194985B00C68010008
:10153000002B14D0042A17D100680F263027520040
:1015400004AB9B180B3B9D1AAB4213D10A20114BE5
:1015500001A90B808B1898700330D8700432E068B2
:10156000FFF7C2FF05B0F0BD022A01D10088E4E711
:101570000078E2E701003140092904D839431970A5
:101580000009013BE0E73731F9E7C046A50000203C
:10159000000300203078000080B500AF72B6EFF392
:1015A0000883044A1360036883F308884368184774
:1015B000BD4680BD040300200D4A1388002B09D0CE
:1015C0001388013B9BB21380002B03D18022094B6F
:1015D00012059A61084A1388002B08D01388013B32
:1015E0009BB21380002B02D10822044B1A60704773
:1015F000AC00002000280040A600002098280040F1
:101600000023F0B5C04A85B01360C04A7A3300AFFA
:101610001370BF4EBF4C336840211B6920009847B0
:10162000002805D00822BC4B1A60BC4B5C321A80E3
:10163000BB4BBC4A1860BC4B1C6000231360B84B0A
:10164000B84C1B687B607A6823689342E1D2B64B42
:101650001B681B78FF2B65D0232B00D0BBE1B34D5B
:101660002B78002B06D0AA4B02221B68B049D86801
:10167000FFF73AFFA54B1B78532B5DD1A84B1A6897
:1016800023689A421DD9A84DAA49013308682968E0
:10169000236001312960D31AA74D83424AD22B60BF
:1016A000994B2A681B6818007B6000F05DFA2B6874
:1016B00022689D49D21822600A68D2180A609F4A9F
:1016C0001370984B974A1B687B60013B1360964AE6
:1016D0001368013B1360994B964A1B7811688B4243
:1016E0000ED2C91A8A4B884A1B6810689B699847B2
:1016F000002805D00822884B1A60884B5C321A807B
:10170000C0467A22814B1A7000228A4B1A60874B9E
:101710001B78934206D07E4B01321B688849D868FB
:10172000FFF7E2FE7F4A1368013313607E4A1368B5
:10173000013383E72860B3E7522B09D1744B7D4A0C
:101740001B687149126809685869FFF7CDFED8E730
:101750004F2B07D16C4B1B687B60764B7A681B68FC
:101760001370CEE7482B07D1674B1B687B60714B2A
:101770007A681B681380C4E7572B05D1624B6D4A0A
:101780001B6812681A60BCE76F2B05D101215E4B04
:101790001868FFF7C5FEB4E7682B07D15A4B6548B8
:1017A0001B6802217B601B880360F2E7772B06D160
:1017B000554B60481B6804211B680360E9E7472B11
:1017C00012D15C4B1868FFF7E7FE5E4B1B6883F392
:1017D000088862B65C4B1B78002B92D04C4B0620DD
:1017E0001B681B6898478CE7542B09D1533B2B701F
:1017F000474B1B6802224E49D868FFF775FE80E709
:101800004E2B0DD12B78002B06D1414B02221B68A9
:101810004749D868FFF768FE0022444B1A7070E70A
:10182000562B53D1336801224849D868FFF75CFE34
:10183000336803224649D868FFF756FE454C3368A3
:1018400001222100D868FFF74FFE33680D2242497C
:10185000D868FFF749FE336801222100D868FFF7F6
:1018600043FE3E4B304D2F4A2B6000231100136086
:101870002B685A1C2A601B780A687B60002B1FD1DA
:10188000234C36492368D868FFF72EFE23680122CF
:101890003049D868FFF728FE224B314918007A6892
:1018A0002960214D1A602B685A1C2A601B78026837
:1018B000002B08D12368D868FFF716FE236899E744
:1018C00001320A60D4E701320260ECE7194A582B72
:1018D00007D11068FEF706FE0D4B03221B68214955
:1018E0008AE7592B44D1084B10681A681E4B002810
:1018F00005D11A60064B03221B681C497CE7196856
:10190000FEF706FEF6E7C046FC020020B402002007
:1019100000030020BC02002094280040A600002004
:10192000AC020020B8020020B0020020A500002078
:10193000151C0000080300200C030020A802002052
:10194000181C000004030020A4000020F11B00006C
:10195000ED1B0000F31B0000DF1B0000F51B000067
:10196000011C00000A1C0000A80000200E1C000042
:101970005A2B00D0C5E60024294B1D681368EB18CC
:101980007B607B68AB421FD1264D01222B68264924
:10199000D868FFF7A9FD07230F222240D0B201002B
:1019A00024093031092A00DD07310822BA18D15440
:1019B000013BF1D208222B68B918D868FFF794FDD3
:1019C0002B680322194917E72878210000F034F822
:1019D00001350400D5E719003039C8B2144A092886
:1019E00004D813681B010B4313609BE619004139AF
:1019F000052903D81168373B0901F4E7190061395B
:101A0000052903D81168573B0901ECE72C2B04D1B9
:101A1000034B116819600023E6E706490B70FAE7EB
:101A2000FC02002000030020121C0000141C000017
:101A300008030020B40200200B0A4340034A5B0065
:101A4000985A0902484080B27047C046381C0000CE
:101A5000002243088B4274D303098B425FD3030AED
:101A60008B4244D3030B8B4228D3030C8B420DD300
:101A7000FF22090212BA030C8B4202D3121209028E
:101A800065D0030B8B4219D300E0090AC30B8B42CC
:101A900001D3CB03C01A5241830B8B4201D38B037A
:101AA000C01A5241430B8B4201D34B03C01A52411F
:101AB000030B8B4201D30B03C01A5241C30A8B4262
:101AC00001D3CB02C01A5241830A8B4201D38B024D
:101AD000C01A5241430A8B4201D34B02C01A5241F1
:101AE000030A8B4201D30B02C01A5241CDD2C30963
:101AF0008B4201D3CB01C01A524183098B4201D3DF
:101B00008B01C01A524143098B4201D34B01C01AC9
:101B1000524103098B4201D30B01C01A5241C30841
:101B20008B4201D3CB00C01A524183088B4201D3B0
:101B30008B00C01A524143088B4201D34B00C01A9C
:101B40005241411A00D20146524110467047FFE708
:101B500001B5002000F006F802BDC0460029F7D00C
:101B600076E770477047C046002310B59A4200D10F
:101B700010BDCC5CC4540133F8E703001218934243
:101B800000D1704719700133F9E70023C25C0133BB
:101B9000002AFBD1581E7047F8B5C046F8BC08BCF7
:101BA0009E467047F8B5C046F8BC08BC9E467047D4
:101BB00004030904120100020200004041234D0009
:101BC00000020102000141726475696E6F204C4C85
:101BD000430041726475696E6F205A65726F005BD5
:101BE00041726475696E6F3A58595A5D00322E30F1
:101BF00000760020004E6F762020392032303231BE
:101C00000030393A32363A323400580A0D00590A57
:101C10000D005A00230A0D003E00000015140000BC
:101C2000311400004D140000711400008D140000E8
:101C300071140000B5140000000021104220633030
:101C40008440A550C660E770088129914AA16BB114
:101C50008CC1ADD1CEE1EFF13112100273325222BC
:101C6000B5529442F772D662399318837BB35AA364
:101C7000BDD39CC3FFF3DEE362244334200401148C
:101C8000E664C774A44485546AA54BB528850995B4
:101C9000EEE5CFF5ACC58DD553367226111630065C
:101CA000D776F6669556B4465BB77AA71997388704
:101CB000DFF7FEE79DD7BCC7C448E5588668A7781C
:101CC0004008611802282338CCC9EDD98EE9AFF954
:101CD000488969990AA92BB9F55AD44AB77A966AFC
:101CE000711A500A333A122AFDDBDCCBBFFB9EEBA4
:101CF000799B588B3BBB1AABA66C877CE44CC55CCC
:101D0000222C033C600C411CAEED8FFDECCDCDDDF3
:101D10002AAD0BBD688D499D977EB66ED55EF44E9B
:101D2000133E322E511E700E9FFFBEEFDDDFFCCF43
:101D30001BBF3AAF599F788F8891A981CAB1EBA197
:101D40000CD12DC14EF16FE18010A100C230E32013
:101D50000450254046706760B9839893FBA3DAB3BB
:101D60003DC31CD37FE35EF3B1029012F322D23263
:101D70003542145277625672EAB5CBA5A89589858B
:101D80006EF54FE52CD50DC5E234C324A0148104B3
:101D90006674476424540544DBA7FAB79987B8975B
:101DA0005FE77EF71DC73CD7D326F2369106B01603
:101DB00057667676154634564CD96DC90EF92FE91B
:101DC000C899E9898AB9ABA9445865480678276853
:101DD000C018E1088238A3287DCB5CDB3FEB1EFBFB
:101DE000F98BD89BBBAB9ABB754A545A376A167AA3
:101DF000F10AD01AB32A923A2EFD0FED6CDD4DCDCB
:101E0000AABD8BADE89DC98D267C076C645C454CF2
:101E1000A23C832CE01CC10C1FEF3EFF5DCF7CDF9A
:101E20009BAFBABFD98FF89F176E367E554E745E42
:0C1E3000932EB23ED10EF01E0000000008
:101E3C000800000000093D00555044415445322E25
:101E4C0042494E005550444154452E42494E0000E3
:101E5C000902430002010080320904000001020261
:101E6C0000000524001001042402000524060001D2
:101E7C000524010001070583030800FF0904010084
:101E8C00020A00000007058102400000070502025B
:101E9C004000000000C201000000080069000000C2
:041EAC0041000000F1
:04000003000004995C
:00000001FF
