:10000000FC7F00207D0500006D05000071050000EB
:1000100000000000000000000000000000000000E0
:100020000000000000000000000000007505000056
:1000300000000000000000007905000039120000F7
:1000400010B5064C2378002B07D1054B002B02D0AE
:10005000044800E000BF0123237010BD7800002099
:1000600000000000241F000008B5084B002B03D03F
:100070000748084900E000BF07480368002B03D089
:10008000064B002B00D0984708BDC046000000007A
:10009000241F00007C0000207400002000000000ED
:1000A00010B52149214B0A78002A09D1204A187835
:1000B00012788218D2B21A7080201E4A8002D06153
:1000C0000A780132D2B20A701A78F02A08D9184A8E
:1000D00010784042C0B2107018781278821817E079
:1000E000154A1C781078844214D21148047864B2FE
:1000F000002C0FDA1478052C01D1462400E00524E9
:10010000147002785242D2B202701C780278A2189F
:10011000D2B21A700A781B789A4203D18022054B1A
:100120009202DA6110BDC046940000200100002058
:1001300000000020002800400200002010B572B628
:10014000FA2464004443044B80229202DA61201CAA
:1001500000F0E8FAF7E7C0460028004070B50368F1
:10016000041C988B1A1C0821FF32084226D08020DC
:1001700099839872112353704021144B91715071DF
:100180005E68134DC0202E40800506435E605E69A8
:100190003540284358610F4818600F4818615D6862
:1001A0000E4828408025AD02284358605868800BCF
:1001B0008003586000235171237105E0137ADA0639
:1001C00002D5201C01F072F8207970BDB401002026
:1001D000FFFFFF8FB400002034010020FF3F00F03C
:1001E000002303714371044B016083600B7802228A
:1001F00013430B707047C0465D01000008B5254BE6
:1002000001219A6924480A439A6100F01BFA2348A5
:1002100000F018FA224B40221A601A685106FCD5E9
:100220008223DB051A7801210A431A709A78D107D4
:10023000FCD41C4B1F221B68590B1140914200D16A
:100240000521980C02401F2A00D11D229B015B0F43
:10025000072B00D1032389010A431B031A4382237E
:10026000DB051A8519787F220A401A701A78042152
:100270000D480A431A7058621A890C218A431A8160
:100280001A8901218A431A810021802201F0E9FCA8
:1002900008BDC04600040040060018000600190012
:1002A0009018004020608000B4010020F7B5141CB5
:1002B0001F4A5F0101971D1CD319061C5869271C92
:1002C0004000400F03301033C74006D00F1C80227F
:1002D000596812060A435A6009E02F1C7B1E9F4191
:1002E000144BBF01FF18381C221C01F0B1FC01990E
:1002F0000F48083542181761131C5269A104920B6C
:10030000890C92030A435A6159690B4A0A405A619F
:100310006B01F3180222DA715979802252420A43A2
:100320005A716B01F318DB799A07FAD5201CFEBDD0
:10033000B401002034010020FF3F00F0F8B51A4E50
:10034000051C3378141C002B12D1184B184A1A6460
:100350005A6C920B92035A64586C164A02405A64C3
:10036000A2235B00EA5C40200243EA54012333707D
:100370004827FF37EA5D0123134012D00B4B5A6C1C
:100380009204920CA24202D25C6CA404A40C081C3D
:10039000221C074901F05CFC0123EB55002333705C
:1003A00000E01C1C201CF8BD95000020B4010020BA
:1003B000F4000020FF3F00F0FF3083792022002965
:1003C00000D110221343837170470000084BFF30A7
:1003D0005A69920B92035A61022303728279802335
:1003E0005B4213438371037A9A07FCD57047C0467A
:1003F000B401002080235B421943C9B28172704767
:1004000070B5A02303225B00C254134B134A5C6CEB
:10041000C021144089050C4346255C64FF35402407
:1004200044550F4D30261D6490256D0046555D6B7B
:1004300015402943922559636D0080214155094D8E
:100440001D63B0256D0044555C6F22405A67B2238E
:100450005B00C15470BDC046B4010020FFFFFF8F98
:10046000F400002074010020024B1A780E231A4277
:10047000FAD17047380C004070B52D4B80215A6876
:100480002C4D0A435A605A6804210A435A606B692A
:10049000402213436B618023DB0501229A719A7815
:1004A00002210A439A70997901221142FBD08023DC
:1004B000214CDB059A7122702378D90704D51E4B95
:1004C0005A681E4B1A42F7D11D4B1E4A02215A612F
:1004D0005A690A435A61DA68D107FCD51A4B1B4E98
:1004E000F362FFF7C1FF1A4A002333631370FFF76B
:1004F000BBFF184B02221A70FFF7B6FF164B134EC4
:100500001B789A07FAD5154B236200F01DF9337D4D
:100510000C229343042213433375114BE36200F022
:1005200013F9104B104A1A6001232B7170BDC0469D
:10053000004000410004004000180040FD0700009A
:10054000001000401C040000710B0000000C004073
:10055000340C0040280C00403C0C00400803020012
:100560000601010004000020006CDC020EBEFEE764
:100570000DBEFEE705BEFEE702BEFEE70E4A0F48CF
:1005800038B5824204D10E4A0E4B93420ED10AE096
:100590000D4C9442F7D00023D1188842F3D9E55886
:1005A00004330D60F8E700F0CDFD04E09342FAD289
:1005B000002102C3FAE7FEE70000002078000020D7
:1005C0001403002078000020281F0000074B9842E9
:1005D0000AD8074B4208DA61064A1A801A7DD10709
:1005E000FCD50130FF30F1E77047C046FFFF030044
:1005F0000040004102A5FFFFF0B58008002819D097
:100600000D4C0E4B251C23802B7DDE07FCD50023D3
:100610009E008F5901339751102B01D08342F7D19F
:10062000074E26802C7DE607FCD59C00121909197F
:10063000C01AE3E7F0BDC0460040004144A5FFFFFB
:1006400004A5FFFF70B5431C1ED08402E40F0F4BBE
:10065000010C6501E4014D1BE418631940331E7859
:10066000012216431E706B08E31830330A401C78D1
:1006700092000F2191408C431C70C0B219789040B9
:10068000021C0A43D2B21A7070BDC0460028004056
:1006900030B50123941EC0019C4201D9002A10D11B
:1006A000144D1C1C8C4043195C60022A01D19C61D2
:1006B00005E00223032A17D10F4A83185C60062342
:1006C00012E0042A04D10B4C8B400219936105E01F
:1006D000052A03D1084D8B4042195360054C012275
:1006E00003198A409A600223044D091849190B70B6
:1006F00030BDC0460028004010280040402800407F
:10070000074BC001C018006A01238B401840002A23
:1007100002D14342584101E0431E9841C0B27047A4
:1007200000280040064B1A68064B9A4201D10C2360
:1007300058430023834201D00133FBE77047C04692
:1007400004000020006CDC02024B5A68024B1A4283
:10075000FAD1704700180040FD07000037B50020AF
:1007600000F09AFC8024A4010C4D01AA281C402111
:1007700000F032FC019A0023002A08D0934206D2EE
:10078000E85C195D884207D101339BB2F6E740343B
:10079000002AE9D1012000E000203EBD60020020D7
:1007A00037B5012801D1284C00E0284C284800F03A
:1007B00093FA002845D1201C00F03EFB002840D1D0
:1007C000FFF7CCFF002803D0FA204000FFF7B6FC6B
:1007D000002000F061FC80208001FFF7F7FE8024FC
:1007E000A4011C4DFF214022281C01F03AFA281CCC
:1007F000402101AA00F0F0FB019800280ED0164B12
:100800009C4207D980208001FFF7E0FE3F20FFF7E0
:1008100095FC03E0291C221CFFF7EEFE019B4034EF
:10082000002BDED1FFF79AFF002806D1802080013F
:10083000FFF7CCFE1F20FFF781FCFA208000FFF7B6
:100840007DFC03203EBDC0461400002008000020AF
:100850003402002060020020FFFF030038B50C4B7B
:1008600002211A681D1C8A431A60EB69084C9A071A
:10087000FBD44100074801F09BF90138C0B2207356
:100880002368022213432360EB699A07FCD438BD26
:1008900000100042006CDC0208B500201221042286
:1008A000FFF7F6FE08BD0000064B9A6A520A520294
:1008B000104398621A7E5107FCD5024B986AC0B269
:1008C0007047C0460010004238B543B2041C0D1CEE
:1008D000002B07DA77200021FFF7F6FF01282BD83D
:1008E0007F231C40122105220020FFF7D1FE201C8F
:1008F000FFF7DAFF280EFFF7D7FF280CC0B2FFF78B
:10090000D3FF280AC0B2FFF7CFFFE8B2FFF7CCFF52
:10091000402C04D08720482C02D0012000E09520F4
:10092000FFF7C2FF0A24FF20FFF7BEFF030603D52F
:10093000013CE4B2002CF6D138BD000073B5FFF7DE
:10094000ABFF5948FFF77EFE01204042FFF77AFED9
:100950005648FFF777FE5648FFF774FE122104222F
:100960000020FFF795FE534B1F21DA690A43DA6135
:100970001A6A02210A431A624F4B01211A680A437C
:100980001A60196801221142FBD14B49C969114211
:10099000F7D14A4A4021116011684806FCD5484AFF
:1009A00048481A60802292025A60FFF757FF642479
:1009B000FA20013C8000E4B2FFF7B4FE002CF7D12E
:1009C0000A25013DFF20EDB2FFF76EFF002DF8D1A3
:1009D0004020291CFFF778FF041E012C01D00024C1
:1009E0004AE0D52148204900FFF76EFF01281CD1BD
:1009F000FF20FFF759FF01AEA8550135042DF7D1AF
:100A0000B378012BEBD1F378AA2BE8D12E4C8021BF
:100A1000C905E920FFF758FF011E1DD06420013CE5
:100A2000FFF780FE002CF2D1D9E7E920291CFFF75F
:100A30004BFF4126012801D80224E926224D301C13
:100A40000021FFF741FF002823D06420013DFFF77C
:100A500069FE002DF3D1C2E77A20FFF735FF041EAF
:100A6000BDD1FF20FFF720FF30550134042CF8D111
:100A700033785A0600D50C24144B1C70FFF70CFF7A
:100A8000002C02D01248FFF7E9FE60426041C0B27C
:100A900076BD802150208900FFF716FF4342584160
:100AA00040420440E8E7C04603000C0003002A006F
:100AB00003002B000004004000100042D818004042
:100AC0000C00010090D003001027000096000020C9
:100AD000808D5B00F8B51E1C1B4B071C1B78141C7B
:100AE0001A0700D449025120FFF7EEFE002801D07A
:100AF000012525E0154DFF20FFF7D6FEFF2803D185
:100B0000013D002DF7D1F3E7FE28F1D1104DAD1BCB
:100B10002D1B002C01D13C1C04E0FF20FFF7C4FE7C
:100B2000013CF6E7FF20FFF7BFFEBB192070013440
:100B3000A342F7D1FF20013DFFF7B6FE002DF9D10A
:100B4000FFF7AAFE281CF8BD96000020409C00007C
:100B500002020000064B821E1B68002099680239C1
:100B60008A4203D298785B695043C0187047C046E8
:100B700098000020084B1B681A780023032A04D130
:100B8000437D027D1B0213431B04C27E807E120242
:100B9000104318437047C046980000200F4B10B513
:100BA0001A68002303808368041C012B14D0916809
:100BB00001208B4211D2002B03D11178032900D1DF
:100BC0001369E360002B03D0181CFFF7C3FF00E09C
:100BD00010692061002000E0181C10BD9800002062
:100BE0001C4B13B51A68012832D9936898422FD24A
:100BF0001378022B02D0032B10D029E0D268010A0F
:100C000001ACC0B289184200201CFFF763FF002826
:100C10001ED160782378000218431AE0D3687F223F
:100C2000C10901AC1040C91882000423201CFFF741
:100C300051FF00280CD1E078A37800061B0418436C
:100C40002378184363781B0218430001000900E071
:100C5000012016BD98000020FF2238B55200022363
:100C6000041C0D1CFFF736FF032300282CD16178EC
:100C7000237809021943154A09B20223914223D16C
:100C8000201C291C3622FFF725FF002807D1627897
:100C9000237812021A430E4B12B29A4213D0022347
:100CA000201C291C5222FFF715FF012300280BD11D
:100CB000637822781B021343064A1BB29B185A1E04
:100CC0009341DBB200E0031C181C38BD55AAFFFF9E
:100CD00046410000BABEFFFFF0B5534B00228DB075
:100CE0001A60051CFFF72AFE0123061C1E40022085
:100CF000002E00D096E003AC201C311CFFF7ACFFA7
:100D000001281DD1DF22201C311C52001023FFF7C7
:100D1000E1FE002801D0012084E02379002B01D1DD
:100D200006207FE0E67AA37A36061B041E43237A68
:100D3000201C1E43637A1B021E43311CFFF78CFFED
:100D40000328E8D00028EBD1201C311C0D222423DD
:100D5000FFF7C0FE0028DED1A77A637A3F021F4367
:100D600009D1A77E637E3F061B041F43E37D1F431B
:100D7000237E1B021F43E378A2785F43637812024D
:100D80001A432178B6180192EE60A9706079237930
:100D900000021843A880E3791B020093A279134351
:100DA0000BD1A37D1B069C46637D62461B041A4340
:100DB000E37C247D134324022343019A0409981AF7
:100DC000C01B001B00F0F4FE184A1949831C801850
:100DD000AB60184A884220D99342A1D903232B70D3
:100DE000032B10D16B460F33DA7F013BDB7F1206FA
:100DF0001B04134303AAD27F13436A460D32D27FEA
:100E00001202134300E0BB192B613619064BF71988
:100E100000206F6168701D6004E09A429B415B4254
:100E20000233DCE70DB0F0BD980000200AF0FFFFB0
:100E3000FEEF0000F6FF0000F0B5664B041C1F68D3
:100E400093B00520002F00D1C1E0002302A97B70E0
:100E500006912378202B01D10134FAE72F3B5A4227
:100E60005341E4182378002507951F2B48D805A87F
:100E7000FFF794FE0AAB1D70A84200D181E0A6E006
:100E800000231A1C0821551CA25CEDB2202A41D86F
:100E90000023202191425B41C37205A86419FFF72A
:100EA0007DFE002800D092E005AD2A880F231A406D
:100EB0000AAE5201301C29692023FFF70BFE0028DF
:100EC00000D081E03378002B00D17FE06B463333D4
:100ED000197808230B4028D16A680AA81E5C0133E0
:100EE000B446D618013E367866451ED10B2BF4D198
:100EF000D37A002B45D1CB0668D5FFF73BFE079090
:100F00000698021C031C0B329342B9D020211970A1
:100F10000133F9E72F2ABBD02E2A4FD08B42B7D20C
:100F20005E1CC254F3B22A1CADE72A4E3668019605
:100F30002E880136B6B2002E48D02B69002B45D042
:100F400031071BD1E86801332B61002804D1019AD5
:100F50009388B3423AD911E0019933098A78013A6A
:100F60001A420BD1FFF73CFE01282DD9019A936854
:100F700098422BD2E860FFF7EDFD286105AB1E809B
:100F800092E70AAC23780320002B20D0E57A1023C7
:100F90001D401CD1201CFFF7EDFD3862E27FA37FCE
:100FA00012061B041343227F281C1343627FBD617A
:100FB00012021343FB6101237B7008E0082900D073
:100FC00066E70B1C0B21AEE7012000E0032013B005
:100FD000F0BDC04698000020F7B52E4B01901C686C
:100FE0000023171C13609C4252D063780420DA0758
:100FF0004FD5E069A2690D1C831A994200D91D1CC6
:10100000019B0093002D41D0A369DA0519D1A67880
:101010005A0A013E3240D6B2002E09D1002B01D12E
:10102000206A02E0606AFFF7DBFD01281FD96062D9
:10103000606AFFF78FFD002801D1607019E0861902
:10104000A662A0698023C205D20D9B009B1A2E1EAA
:101050009E4200D91E1C0198A16A431E9841009B24
:1010600040421840331CFFF735FD002803D0002311
:10107000637001200DE0A069009A8319A3613B68A9
:101080009219AD1B9E1900923E60BBE7281C00E040
:101090000520FEBD98000020294BF7B51C68051CF3
:1010A000002C4AD063780420DA0747D5E3699D42D3
:1010B00000D91D1C0020A369A06185423ED0A678FE
:1010C0007602834212D0311C681E5F1E00F070FD54
:1010D000311C0190381C00F06BFD019B834205D34D
:1010E00073423B40A361ED1A606A0EE0206A6062C1
:1010F0000BE0FFF775FD01280AD9A268904207D2DC
:10110000A26960629319A361AD1BB542F1D802E0F8
:101110000023637007E0A369ED18A561FFF71AFDCE
:10112000002802D16070012008E0A3786D0A013B1D
:101130001D402818A062002000E00520FEBDC0462A
:1011400098000020F8B5314D314E2A6801321FD089
:10115000EBB2002B1CD12F4A2F4C177801221740DD
:1011600001D023600AE022682C4B9A4201D127600B
:101170000EE023602A48FFF7D5FA2760234A136858
:1011800083F30888FF239D43204BB5605B681847B5
:10119000FFF772F962B6234B802292029A605A617D
:1011A000214B224A00245A60316AC0220902090AEE
:1011B00012060A43326207229C60201C1A60062134
:1011C0000222FFF765FA201C0621221CFFF798FA7D
:1011D000A04216D100F036F8154B0422041C1A70F8
:1011E000A368201C9847134B002801D001221A70D5
:1011F0001B78002BF4D0002000F07CFA00F0D4FA29
:10120000FCE70120FFF7CCFAE4E7C046002000002D
:1012100000ED00E000080040FC7F002035817307EE
:1012200020A107000028004010E000E0BF030000FC
:10123000000000209C00002008B5FEF731FF00F000
:10124000B1FA08BD10B58223054CDB052360FEF71B
:10125000D5FF201C2168FEF7C3FF201C10BDC0462F
:10126000A002002070B5051CC0B0081C161C0C1C88
:1012700000F0FFFC40006A460323023053701070F8
:1012800076080123E218013A11785A00002906D1A4
:10129000281C69460023FFF709F840B070BDB3422F
:1012A000F6DA684681520133ECE70000F7B5BA4A36
:1012B00004681378B949271CFF37051C10203872C1
:1012C0000B705378B648B74E037093783380D1785B
:1012D000338809020B4333801179B34B198051795C
:1012E00018880902084318809079B0490880D2799B
:1012F0000888120202430A8040227A71A84F3A7885
:10130000A64F120238780F1C0243A9488446181CC5
:10131000624500D1C2E020DC802149008A4200D130
:101320006EE109DC812A00D192E0822A00D195E0A9
:10133000802A00D064E18BE081235B009A4200D1D7
:10134000CFE000DA58E1C0239B009A4200D157E178
:10135000984B9A4200D14FE152E190231B019A42EF
:1013600069D015DCD023DB009A4222D088231B01F0
:101370009A4269D0A023DB009A4200D040E1201CB1
:10138000FFF724F83188286889B2FFF733F83BE18A
:10139000894B9A4200D12FE100DC31E1874B9A4220
:1013A00000D11DE1864B9A4200D029E133886B7150
:1013B00022E133881B0A012B08D10B8812222868EE
:1013C000934201D80A8892B27E4911E133881B0A00
:1013D000022B08D10B8843222868934201D80A883F
:1013E00092B2794904E133881B0A032B00D007E14C
:1013F0003388DBB2012B17D0002B07D0022B00D093
:10140000FEE00A882868D2B2704911E0042201A8DF
:101410006F4900F01DFC3B8804222868934201D8E4
:101420003A8892B201A9E3E00A8828686949D2B2F1
:10143000FFF718FFE8E03388201C2B71FEF7C6FF8A
:10144000201CFEF7DDFFDFE0291C01C90122CFE0EF
:10145000614900230B8028680222CAE05E4900220D
:101460000A801888502210405C4A10701E880F2095
:10147000304018801888032800D9C1E012781B88F2
:1014800008335B01E418A379002A01D09B0600E031
:10149000DB06DB0F0B8028680222A9E019887F2277
:1014A00091434E4AC9B2117018880F21014019802A
:1014B0003188002900D0A3E01988002900D19FE0DD
:1014C0001988032900D99BE012781B8808335B0137
:1014D000E318002A02D020225A718DE010215971A0
:1014E0008AE002887F239A433C4BD2B21A7001886B
:1014F0000F220A4002803288002A00D080E0028851
:10150000002A00D17CE00288032A00D978E01B7809
:10151000002B1FD0038808335B01E3189B799A06E0
:101520006AD50388202208335B01E3181A71038807
:1015300008335B01E318DB795F065DD50388402241
:1015400008335B01E318DA710388022208335B0178
:10155000E3181EE0038808335B01E3189B79D90682
:101560004AD50388102208335B01E3181A710388F7
:1015700008335B01E318DB799A063DD50388202206
:1015800008335B01E318DA710388012208335B0139
:10159000E3181A7130E0C046B4000020A00000201B
:1015A000A1000020A2000020A40000209E00002036
:1015B000020300000103000021200000A12100001F
:1015C00021220000B81C000020000020A81C000000
:1015D000981C00009C1C0000A6000020A800002011
:1015E0000B8808222868934201D80A8892B20749DA
:1015F0000023FEF75BFE07E0201CFEF7E7FE03E09A
:10160000201C0121FEF7D8FEF7BDC0466400002073
:1016100007B5054B0122019001A91868131CFEF7BC
:1016200045FE01200EBDC046A002002013B5054BAB
:101630006C4607341868211C0122FEF77FFE2078D3
:1016400016BDC046A002002010B5074C201CFEF7B6
:1016500085FD031C0020834205D022684823FF3308
:10166000D05C0123184010BDA002002010B5054A2F
:101670000C1C031C191C10680123221CFEF716FE0B
:10168000201C10BDA002002070B5084C061C201CB8
:101690000D1CFEF763FD0023984205D02068311C25
:1016A0002A1CFEF74BFE031C181C70BDA002002074
:1016B000F8B50C4C051C201C0E1CFEF74FFD00233A
:1016C000271C341C98420AD0002C07D0291C221C4D
:1016D0003868FEF733FE241A2D18F5E7331C181C62
:1016E000F8BDC046A002002008B5031C081C111C50
:1016F000984708BD002802D1014A024B1A60704782
:10170000CC1C00000403002030B50A1C1C4985B025
:101710000978031C00292AD0042A01D1006804E0BA
:10172000022A01D1008800E00078520004A98B1839
:101730000B3B9C1AA3420BD00F210140092902D870
:101740003025294300E0373119700009013BF1E7EA
:1017500001A930230B7078234B700A208B189870E6
:101760000D20D870074B04321B68D86803E0054988
:101770000968C868191CFFF7B7FF05B030BDC0463F
:10178000B00000200403002072B6EFF30883044A7F
:101790001360036883F30888436818477047C0469E
:1017A0000803002070470000F0B5D04C00232360F0
:1017B000CF4B7A2287B01A70CE4DCF4E2B68301C9B
:1017C0001B6940219847CD4B00221860CC4B2F1C41
:1017D0001E60CC4B1A60CB4DC8492A6809688A4202
:1017E000EAD2C74B1B681A78FF2A00D1C4E1232A2A
:1017F00000D06AE1C44E3378002B06D0BD4BC349FC
:101800001B680222D868FFF76FFFB9480378532B93
:1018100039D1BA492A680B6893421CD9B8480132B9
:101820002A609A1ABA4B01681B6801310160B94EEF
:101830009A4201D2326000E033603268206800F0E2
:1018400007FA336828681A182A60AD4A1068C11868
:101850001160B14A1370AB49AA4A09680B1C013BDD
:101860001360A74B1A68013A1A60AB4BA84A1B7861
:1018700011688B4205D29F4AC91A12682068926982
:101880009047C0460FE1522B07D19A4BA04A1B68E4
:1018900011685B692068984705E14F2B04D19C4B88
:1018A00020681B680370FEE0482B04D1984B216828
:1018B0001B680B80F7E0572B04D1954A2368126808
:1018C0001A60F0E06F2B02D12068012106E0682B3E
:1018D00007D122688E48138802210360FFF714FFA6
:1018E000E1E0772B05D1236889481B680421036058
:1018F000F4E7472B13D1864B1868FFF745FF874B5A
:101900001B6883F3088862B6854B1B78002B00D1D7
:10191000C9E0784B06201B681B689847C3E0542B2E
:1019200004D101233370734B1B6868E04E2B0CD13C
:101930003378002B06D16F4B74491B680222D8689C
:10194000FFF7D2FE00233370ADE0562B5BD13B682E
:101950007449D8680122FFF7C7FE3B687249D8680E
:101960000322FFF7C1FE3B68704DD868291C012295
:10197000FFF7BAFE3B686E49D8680D22FFF7B4FE48
:101980003B68291CD8680122FFF7AEFE5C4B694911
:101990005C4E19605A4A00233360301C13685D1C8A
:1019A00015601B780393002B03D003680133036099
:1019B000F4E7504D32682B68D868FFF795FE2B6826
:1019C0005A490122D868FFF78FFE03985A494C4ABA
:1019D000306011604A4A1368581C10601B78002B55
:1019E00004D0484B1A6801321A60F3E73B68D868A4
:1019F000444B1B681A1C0193FFF776FE3B68D868BE
:101A0000424902224DE0424A582B07D11068FEF7A6
:101A1000DDFD384B49491B68D86841E0592B0FD18F
:101A20001068474B002802D12068186003E019684D
:101A30002268FEF7E1FD2F4B42491B68D8682FE072
:101A40005A2B30D1256813680026EB1803930399AD
:101A50008D4206D02878311C00F09EF80135061C16
:101A6000F5E7244B38491B680122D868FFF73CFE94
:101A700007230F223240111C36093031092A00DDBC
:101A800007311022D21868461154013BF1D23B684D
:101A900004A9D8680822FFF727FE3B682B49D868BD
:101AA0000322FFF721FE12497A230B70184B002204
:101AB0001A60154B1B7893425ED00E4B24491B686D
:101AC0000122D868FFF710FE56E0111C3039C8B269
:101AD0000F4B092804D818680201114319604BE024
:101AE000111C4139052935D8373A38E00003002068
:101AF000B802002004030020C0020020B002002031
:101B0000B4020020BC020020B00000200C1D000028
:101B10000C03002010030020AC020020080300206A
:101B2000B1000020E81C0000111D0000EA1C0000AC
:101B3000151D0000EC1C0000F81C0000011D000039
:101B4000AC000020051D0000091D00000B1D000059
:101B50000F1D0000111C6139052904D8573A186877
:101B600001010A4307E02C2A02D11968216001E033
:101B70000648027000221A60054B1A6801321A608A
:101B8000044B1A6801321A6025E6C046B8020020EC
:101B9000BC020020B40200200B0A5840034B400056
:101BA000C05A0902484080B27047C046241D000058
:101BB000002934D00123002210B488422CD3012400
:101BC0002407A14204D2814202D209011B01F8E795
:101BD000E400A14204D2814202D249005B00F8E74E
:101BE000884201D3401A1A434C08A04202D3001B7A
:101BF0005C0822438C08A04202D3001B9C082243AD
:101C0000CC08A04202D3001BDC082243002803D0EA
:101C10001B0901D00909E3E7101C10BC704700281C
:101C200001D00020C04307B4024802A1401802902E
:101C300003BDC046190000000029F0D003B5FFF72E
:101C4000B9FF0EBC4243891A1847C0467047C046C8
:101C500010B50023934203D0CC5CC4540133F9E7A0
:101C600010BD031C8218934202D019700133FAE7A9
:101C700070470023C25C0133002AFBD1581E704715
:101C8000F8B5C046F8BC08BC9E467047F8B5C046DB
:101C9000F8BC08BC9E467047040309044172647591
:101CA000696E6F204C4C430041726475696E6F2001
:101CB0005A65726F0000000012010002020000402D
:101CC00041234D0000020102000100001116000036
:101CD0002D160000491600006D1600008916000040
:101CE0006D160000B1160000760020004E6F7620C1
:101CF000203620323032310031303A33373A303109
:101D000000580A0D00590A0D005A00230A0D003E22
:101D100000322E30005B41726475696E6F3A58591B
:101D20005A5D000000002110422063308440A5501D
:101D3000C660E770088129914AA16BB18CC1ADD111
:101D4000CEE1EFF13112100273325222B5529442B9
:101D5000F772D662399318837BB35AA3BDD39CC361
:101D6000FFF3DEE36224433420040114E664C77405
:101D7000A44485546AA54BB528850995EEE5CFF5B1
:101D8000ACC58DD55336722611163006D776F66659
:101D90009556B4465BB77AA719973887DFF7FEE701
:101DA0009DD7BCC7C448E5588668A7784008611825
:101DB00002282338CCC9EDD98EE9AFF94889699951
:101DC0000AA92BB9F55AD44AB77A966A711A500AF9
:101DD000333A122AFDDBDCCBBFFB9EEB799B588BA1
:101DE0003BBB1AABA66C877CE44CC55C222C033C45
:101DF000600C411CAEED8FFDECCDCDDD2AAD0BBDF1
:101E0000688D499D977EB66ED55EF44E133E322E98
:101E1000511E700E9FFFBEEFDDDFFCCF1BBF3AAF40
:101E2000599F788F8891A981CAB1EBA10CD12DC19E
:101E30004EF16FE18010A100C230E3200450254034
:101E400046706760B9839893FBA3DAB33DC31CD394
:101E50007FE35EF3B1029012F322D2323542145284
:101E600077625672EAB5CBA5A89589856EF54FE5E0
:101E70002CD50DC5E234C324A014810466744764D4
:101E800024540544DBA7FAB79987B8975FE77EF734
:101E90001DC73CD7D326F2369106B0165766767624
:101EA000154634564CD96DC90EF92FE9C899E98900
:101EB0008AB9ABA94458654806782768C018E10874
:101EC0008238A3287DCB5CDB3FEB1EFBF98BD89BD4
:101ED000BBAB9ABB754A545A376A167AF10AD01AC4
:101EE000B32A923A2EFD0FED6CDD4DCDAABD8BAD20
:101EF000E89DC98D267C076C645C454CA23C832C14
:101F0000E01CC10C1FEF3EFF5DCF7CDF9BAFBABF73
:101F1000D98FF89F176E367E554E745E932EB23E63
:081F2000D10EF01E00000000CC
:101F28000814050000093D00555044415445322E1F
:101F380042494E005550444154452E42494E0000F6
:101F48000902430002010080320904000001020274
:101F580000000524001001042402000524060001E5
:101F68000524010001070583030800FF0904010097
:101F7800020A00000007058102400000070502026E
:101F88004000000000C201000000080069000000D5
:081F9800410000000000000000
:040000030000057D77
:00000001FF
